{
  "_format": "hh-sol-artifact-1",
  "contractName": "SocialDApp",
  "sourceName": "contracts/SocialDApp.sol",
  "abi": [
    {
      "anonymous": false,
      "inputs": [
        {
          "indexed": true,
          "internalType": "uint256",
          "name": "postId",
          "type": "uint256"
        },
        {
          "indexed": true,
          "internalType": "address",
          "name": "author",
          "type": "address"
        },
        {
          "indexed": false,
          "internalType": "string",
          "name": "text",
          "type": "string"
        }
      ],
      "name": "CommentAdded",
      "type": "event"
    },
    {
      "anonymous": false,
      "inputs": [
        {
          "indexed": true,
          "internalType": "address",
          "name": "follower",
          "type": "address"
        },
        {
          "indexed": true,
          "internalType": "address",
          "name": "followee",
          "type": "address"
        }
      ],
      "name": "Followed",
      "type": "event"
    },
    {
      "anonymous": false,
      "inputs": [
        {
          "indexed": true,
          "internalType": "uint256",
          "name": "postId",
          "type": "uint256"
        },
        {
          "indexed": true,
          "internalType": "address",
          "name": "author",
          "type": "address"
        },
        {
          "indexed": false,
          "internalType": "string",
          "name": "contentCid",
          "type": "string"
        },
        {
          "indexed": false,
          "internalType": "uint256",
          "name": "timestamp",
          "type": "uint256"
        }
      ],
      "name": "PostCreated",
      "type": "event"
    },
    {
      "anonymous": false,
      "inputs": [
        {
          "indexed": true,
          "internalType": "uint256",
          "name": "postId",
          "type": "uint256"
        },
        {
          "indexed": true,
          "internalType": "address",
          "name": "liker",
          "type": "address"
        }
      ],
      "name": "PostLiked",
      "type": "event"
    },
    {
      "anonymous": false,
      "inputs": [
        {
          "indexed": true,
          "internalType": "address",
          "name": "user",
          "type": "address"
        },
        {
          "indexed": false,
          "internalType": "string",
          "name": "username",
          "type": "string"
        },
        {
          "indexed": false,
          "internalType": "string",
          "name": "avatarCid",
          "type": "string"
        }
      ],
      "name": "ProfileUpdated",
      "type": "event"
    },
    {
      "anonymous": false,
      "inputs": [
        {
          "indexed": true,
          "internalType": "address",
          "name": "follower",
          "type": "address"
        },
        {
          "indexed": true,
          "internalType": "address",
          "name": "followee",
          "type": "address"
        }
      ],
      "name": "Unfollowed",
      "type": "event"
    },
    {
      "anonymous": false,
      "inputs": [
        {
          "indexed": true,
          "internalType": "address",
          "name": "user",
          "type": "address"
        },
        {
          "indexed": false,
          "internalType": "string",
          "name": "username",
          "type": "string"
        },
        {
          "indexed": false,
          "internalType": "string",
          "name": "avatarCid",
          "type": "string"
        }
      ],
      "name": "UserRegistered",
      "type": "event"
    },
    {
      "inputs": [
        {
          "internalType": "uint256",
          "name": "postId",
          "type": "uint256"
        },
        {
          "internalType": "string",
          "name": "text",
          "type": "string"
        }
      ],
      "name": "addComment",
      "outputs": [],
      "stateMutability": "nonpayable",
      "type": "function"
    },
    {
      "inputs": [
        {
          "internalType": "uint256",
          "name": "postId",
          "type": "uint256"
        }
      ],
      "name": "commentCount",
      "outputs": [
        {
          "internalType": "uint256",
          "name": "",
          "type": "uint256"
        }
      ],
      "stateMutability": "view",
      "type": "function"
    },
    {
      "inputs": [
        {
          "internalType": "string",
          "name": "contentCid",
          "type": "string"
        }
      ],
      "name": "createPost",
      "outputs": [],
      "stateMutability": "nonpayable",
      "type": "function"
    },
    {
      "inputs": [
        {
          "internalType": "address",
          "name": "userToFollow",
          "type": "address"
        }
      ],
      "name": "follow",
      "outputs": [],
      "stateMutability": "nonpayable",
      "type": "function"
    },
    {
      "inputs": [
        {
          "internalType": "address",
          "name": "",
          "type": "address"
        },
        {
          "internalType": "address",
          "name": "",
          "type": "address"
        }
      ],
      "name": "follows",
      "outputs": [
        {
          "internalType": "bool",
          "name": "",
          "type": "bool"
        }
      ],
      "stateMutability": "view",
      "type": "function"
    },
    {
      "inputs": [
        {
          "internalType": "uint256",
          "name": "postId",
          "type": "uint256"
        },
        {
          "internalType": "uint256",
          "name": "index",
          "type": "uint256"
        }
      ],
      "name": "getComment",
      "outputs": [
        {
          "internalType": "address",
          "name": "author",
          "type": "address"
        },
        {
          "internalType": "string",
          "name": "text",
          "type": "string"
        },
        {
          "internalType": "uint256",
          "name": "timestamp",
          "type": "uint256"
        }
      ],
      "stateMutability": "view",
      "type": "function"
    },
    {
      "inputs": [
        {
          "internalType": "address",
          "name": "user",
          "type": "address"
        }
      ],
      "name": "getPostsByUser",
      "outputs": [
        {
          "internalType": "uint256[]",
          "name": "",
          "type": "uint256[]"
        }
      ],
      "stateMutability": "view",
      "type": "function"
    },
    {
      "inputs": [
        {
          "internalType": "address",
          "name": "user",
          "type": "address"
        }
      ],
      "name": "getUser",
      "outputs": [
        {
          "internalType": "string",
          "name": "username",
          "type": "string"
        },
        {
          "internalType": "string",
          "name": "bio",
          "type": "string"
        },
        {
          "internalType": "string",
          "name": "avatarCid",
          "type": "string"
        },
        {
          "internalType": "bool",
          "name": "registered",
          "type": "bool"
        }
      ],
      "stateMutability": "view",
      "type": "function"
    },
    {
      "inputs": [
        {
          "internalType": "uint256",
          "name": "postId",
          "type": "uint256"
        },
        {
          "internalType": "address",
          "name": "user",
          "type": "address"
        }
      ],
      "name": "hasLiked",
      "outputs": [
        {
          "internalType": "bool",
          "name": "",
          "type": "bool"
        }
      ],
      "stateMutability": "view",
      "type": "function"
    },
    {
      "inputs": [
        {
          "internalType": "address",
          "name": "follower",
          "type": "address"
        },
        {
          "internalType": "address",
          "name": "followee",
          "type": "address"
        }
      ],
      "name": "isFollowing",
      "outputs": [
        {
          "internalType": "bool",
          "name": "",
          "type": "bool"
        }
      ],
      "stateMutability": "view",
      "type": "function"
    },
    {
      "inputs": [
        {
          "internalType": "uint256",
          "name": "postId",
          "type": "uint256"
        }
      ],
      "name": "likePost",
      "outputs": [],
      "stateMutability": "nonpayable",
      "type": "function"
    },
    {
      "inputs": [
        {
          "internalType": "uint256",
          "name": "",
          "type": "uint256"
        },
        {
          "internalType": "address",
          "name": "",
          "type": "address"
        }
      ],
      "name": "liked",
      "outputs": [
        {
          "internalType": "bool",
          "name": "",
          "type": "bool"
        }
      ],
      "stateMutability": "view",
      "type": "function"
    },
    {
      "inputs": [
        {
          "internalType": "uint256",
          "name": "",
          "type": "uint256"
        },
        {
          "internalType": "uint256",
          "name": "",
          "type": "uint256"
        }
      ],
      "name": "postComments",
      "outputs": [
        {
          "internalType": "address",
          "name": "author",
          "type": "address"
        },
        {
          "internalType": "string",
          "name": "text",
          "type": "string"
        },
        {
          "internalType": "uint256",
          "name": "timestamp",
          "type": "uint256"
        }
      ],
      "stateMutability": "view",
      "type": "function"
    },
    {
      "inputs": [],
      "name": "postCount",
      "outputs": [
        {
          "internalType": "uint256",
          "name": "",
          "type": "uint256"
        }
      ],
      "stateMutability": "view",
      "type": "function"
    },
    {
      "inputs": [
        {
          "internalType": "uint256",
          "name": "",
          "type": "uint256"
        }
      ],
      "name": "posts",
      "outputs": [
        {
          "internalType": "uint256",
          "name": "id",
          "type": "uint256"
        },
        {
          "internalType": "address",
          "name": "author",
          "type": "address"
        },
        {
          "internalType": "string",
          "name": "contentCid",
          "type": "string"
        },
        {
          "internalType": "uint256",
          "name": "timestamp",
          "type": "uint256"
        },
        {
          "internalType": "uint256",
          "name": "likes",
          "type": "uint256"
        }
      ],
      "stateMutability": "view",
      "type": "function"
    },
    {
      "inputs": [
        {
          "internalType": "string",
          "name": "username",
          "type": "string"
        },
        {
          "internalType": "string",
          "name": "bio",
          "type": "string"
        },
        {
          "internalType": "string",
          "name": "avatarCid",
          "type": "string"
        }
      ],
      "name": "register",
      "outputs": [],
      "stateMutability": "nonpayable",
      "type": "function"
    },
    {
      "inputs": [
        {
          "internalType": "address",
          "name": "userToUnfollow",
          "type": "address"
        }
      ],
      "name": "unfollow",
      "outputs": [],
      "stateMutability": "nonpayable",
      "type": "function"
    },
    {
      "inputs": [
        {
          "internalType": "string",
          "name": "username",
          "type": "string"
        },
        {
          "internalType": "string",
          "name": "bio",
          "type": "string"
        },
        {
          "internalType": "string",
          "name": "avatarCid",
          "type": "string"
        }
      ],
      "name": "updateProfile",
      "outputs": [],
      "stateMutability": "nonpayable",
      "type": "function"
    },
    {
      "inputs": [
        {
          "internalType": "address",
          "name": "",
          "type": "address"
        }
      ],
      "name": "users",
      "outputs": [
        {
          "internalType": "string",
          "name": "username",
          "type": "string"
        },
        {
          "internalType": "string",
          "name": "bio",
          "type": "string"
        },
        {
          "internalType": "string",
          "name": "avatarCid",
          "type": "string"
        },
        {
          "internalType": "bool",
          "name": "registered",
          "type": "bool"
        }
      ],
      "stateMutability": "view",
      "type": "function"
    }
  ],
  "bytecode": "0x608060405234801561001057600080fd5b50612e87806100206000396000f3fe608060405234801561001057600080fd5b50600436106101215760003560e01c80634dbf27cc116100ad5780638fb7092c116100715780638fb7092c1461035b57806399ec3a421461038b578063a87430ba146103bb578063aa7e5683146103ee578063c7303c611461040a57610121565b80634dbf27cc1461028e5780635193c94c146102aa5780635d1ca476146102dc5780636f77926b1461030c578063725009d31461033f57610121565b806317906c2e116100f457806317906c2e146101c257806328538949146101e0578063355933f21461021057806348892753146102405780634cd08d031461027257610121565b8063015a4ead1461012657806302c42787146101425780630b1e7f83146101725780631105a5eb146101a6575b600080fd5b610140600480360381019061013b9190611f43565b610426565b005b61015c60048036038101906101579190611fa6565b61066f565b6040516101699190612001565b60405180910390f35b61018c6004803603810190610187919061201c565b61069e565b60405161019d9594939291906120f7565b60405180910390f35b6101c060048036038101906101bb91906121b6565b61077c565b005b6101ca610959565b6040516101d7919061226a565b60405180910390f35b6101fa60048036038101906101f59190611f43565b61095f565b6040516102079190612343565b60405180910390f35b61022a6004803603810190610225919061201c565b6109f6565b604051610237919061226a565b60405180910390f35b61025a60048036038101906102559190612365565b610a66565b604051610269939291906123a5565b60405180910390f35b61028c600480360381019061028791906121b6565b610c13565b005b6102a860048036038101906102a39190611f43565b610e02565b005b6102c460048036038101906102bf9190612365565b611148565b6040516102d3939291906123a5565b60405180910390f35b6102f660048036038101906102f191906123e3565b611237565b6040516103039190612001565b60405180910390f35b61032660048036038101906103219190611f43565b611266565b6040516103369493929190612423565b60405180910390f35b6103596004803603810190610354919061201c565b611480565b005b61037560048036038101906103709190611fa6565b6116d9565b6040516103829190612001565b60405180910390f35b6103a560048036038101906103a091906123e3565b61175f565b6040516103b29190612001565b60405180910390f35b6103d560048036038101906103d09190611f43565b6117f3565b6040516103e59493929190612423565b60405180910390f35b6104086004803603810190610403919061247d565b6119c8565b005b610424600480360381019061041f91906124dd565b611c5d565b005b6000803373ffffffffffffffffffffffffffffffffffffffff1673ffffffffffffffffffffffffffffffffffffffff16815260200190815260200160002060030160009054906101000a900460ff166104b4576040517f08c379a00000000000000000000000000000000000000000000000000000000081526004016104ab90612576565b60405180910390fd5b600360003373ffffffffffffffffffffffffffffffffffffffff1673ffffffffffffffffffffffffffffffffffffffff16815260200190815260200160002060008273ffffffffffffffffffffffffffffffffffffffff1673ffffffffffffffffffffffffffffffffffffffff16815260200190815260200160002060009054906101000a900460ff1661057d576040517f08c379a0000000000000000000000000000000000000000000000000000000008152600401610574906125e2565b60405180910390fd5b6000600360003373ffffffffffffffffffffffffffffffffffffffff1673ffffffffffffffffffffffffffffffffffffffff16815260200190815260200160002060008373ffffffffffffffffffffffffffffffffffffffff1673ffffffffffffffffffffffffffffffffffffffff16815260200190815260200160002060006101000a81548160ff0219169083151502179055508073ffffffffffffffffffffffffffffffffffffffff163373ffffffffffffffffffffffffffffffffffffffff167f25b48012798806863072289354ed0b3849b73152482d9c6694e5cbb35f38d5e360405160405180910390a350565b60046020528160005260406000206020528060005260406000206000915091509054906101000a900460ff1681565b60016020528060005260406000206000915090508060000154908060010160009054906101000a900473ffffffffffffffffffffffffffffffffffffffff16908060020180546106ed90612631565b80601f016020809104026020016040519081016040528092919081815260200182805461071990612631565b80156107665780601f1061073b57610100808354040283529160200191610766565b820191906000526020600020905b81548152906001019060200180831161074957829003601f168201915b5050505050908060030154908060040154905085565b6000803373ffffffffffffffffffffffffffffffffffffffff1673ffffffffffffffffffffffffffffffffffffffff16815260200190815260200160002060030160009054906101000a900460ff1661080a576040517f08c379a000000000000000000000000000000000000000000000000000000000815260040161080190612576565b60405180910390fd5b85856000803373ffffffffffffffffffffffffffffffffffffffff1673ffffffffffffffffffffffffffffffffffffffff168152602001908152602001600020600001918261085a929190612848565b5083836000803373ffffffffffffffffffffffffffffffffffffffff1673ffffffffffffffffffffffffffffffffffffffff16815260200190815260200160002060010191826108ab929190612848565b5081816000803373ffffffffffffffffffffffffffffffffffffffff1673ffffffffffffffffffffffffffffffffffffffff16815260200190815260200160002060020191826108fc929190612848565b503373ffffffffffffffffffffffffffffffffffffffff167f6eb3a1c6a4675ba92d44e090515b1ceea358f26565d2854df0c99c3f5eaf9850878785856040516109499493929190612954565b60405180910390a2505050505050565b60025481565b6060600560008373ffffffffffffffffffffffffffffffffffffffff1673ffffffffffffffffffffffffffffffffffffffff1681526020019081526020016000208054806020026020016040519081016040528092919081815260200182805480156109ea57602002820191906000526020600020905b8154815260200190600101908083116109d6575b50505050509050919050565b60008082118015610a0957506002548211155b610a48576040517f08c379a0000000000000000000000000000000000000000000000000000000008152600401610a3f906129db565b60405180910390fd5b60066000838152602001908152602001600020805490509050919050565b6000606060008085118015610a7d57506002548511155b610abc576040517f08c379a0000000000000000000000000000000000000000000000000000000008152600401610ab3906129db565b60405180910390fd5b60066000868152602001908152602001600020805490508410610b14576040517f08c379a0000000000000000000000000000000000000000000000000000000008152600401610b0b90612a47565b60405180910390fd5b6000600660008781526020019081526020016000208581548110610b3b57610b3a612a67565b5b906000526020600020906003020190508060000160009054906101000a900473ffffffffffffffffffffffffffffffffffffffff16816001018260020154818054610b8590612631565b80601f0160208091040260200160405190810160405280929190818152602001828054610bb190612631565b8015610bfe5780601f10610bd357610100808354040283529160200191610bfe565b820191906000526020600020905b815481529060010190602001808311610be157829003601f168201915b50505050509150935093509350509250925092565b604051806080016040528087878080601f016020809104026020016040519081016040528093929190818152602001838380828437600081840152601f19601f82011690508083019250505050505050815260200185858080601f016020809104026020016040519081016040528093929190818152602001838380828437600081840152601f19601f82011690508083019250505050505050815260200183838080601f016020809104026020016040519081016040528093929190818152602001838380828437600081840152601f19601f820116905080830192505050505050508152602001600115158152506000803373ffffffffffffffffffffffffffffffffffffffff1673ffffffffffffffffffffffffffffffffffffffff1681526020019081526020016000206000820151816000019081610d569190612a96565b506020820151816001019081610d6c9190612a96565b506040820151816002019081610d829190612a96565b5060608201518160030160006101000a81548160ff0219169083151502179055509050503373ffffffffffffffffffffffffffffffffffffffff167f92822564bab8864c3a47b34e8d23fbce5c46234eb5da261f94087b995ac0f33b87878585604051610df29493929190612954565b60405180910390a2505050505050565b6000803373ffffffffffffffffffffffffffffffffffffffff1673ffffffffffffffffffffffffffffffffffffffff16815260200190815260200160002060030160009054906101000a900460ff16610e90576040517f08c379a0000000000000000000000000000000000000000000000000000000008152600401610e8790612576565b60405180910390fd5b3373ffffffffffffffffffffffffffffffffffffffff168173ffffffffffffffffffffffffffffffffffffffff1603610efe576040517f08c379a0000000000000000000000000000000000000000000000000000000008152600401610ef590612bb4565b60405180910390fd5b6000808273ffffffffffffffffffffffffffffffffffffffff1673ffffffffffffffffffffffffffffffffffffffff16815260200190815260200160002060030160009054906101000a900460ff16610f8c576040517f08c379a0000000000000000000000000000000000000000000000000000000008152600401610f8390612c20565b60405180910390fd5b600360003373ffffffffffffffffffffffffffffffffffffffff1673ffffffffffffffffffffffffffffffffffffffff16815260200190815260200160002060008273ffffffffffffffffffffffffffffffffffffffff1673ffffffffffffffffffffffffffffffffffffffff16815260200190815260200160002060009054906101000a900460ff1615611056576040517f08c379a000000000000000000000000000000000000000000000000000000000815260040161104d90612c8c565b60405180910390fd5b6001600360003373ffffffffffffffffffffffffffffffffffffffff1673ffffffffffffffffffffffffffffffffffffffff16815260200190815260200160002060008373ffffffffffffffffffffffffffffffffffffffff1673ffffffffffffffffffffffffffffffffffffffff16815260200190815260200160002060006101000a81548160ff0219169083151502179055508073ffffffffffffffffffffffffffffffffffffffff163373ffffffffffffffffffffffffffffffffffffffff167f6178e95c138f06036cdc07a49ed6a3d23008969fa143baeceb037ebae22e8d1460405160405180910390a350565b6006602052816000526040600020818154811061116457600080fd5b9060005260206000209060030201600091509150508060000160009054906101000a900473ffffffffffffffffffffffffffffffffffffffff16908060010180546111ae90612631565b80601f01602080910402602001604051908101604052809291908181526020018280546111da90612631565b80156112275780601f106111fc57610100808354040283529160200191611227565b820191906000526020600020905b81548152906001019060200180831161120a57829003601f168201915b5050505050908060020154905083565b60036020528160005260406000206020528060005260406000206000915091509054906101000a900460ff1681565b60608060606000806000808773ffffffffffffffffffffffffffffffffffffffff1673ffffffffffffffffffffffffffffffffffffffff16815260200190815260200160002090508060000181600101826002018360030160009054906101000a900460ff168380546112d890612631565b80601f016020809104026020016040519081016040528092919081815260200182805461130490612631565b80156113515780601f1061132657610100808354040283529160200191611351565b820191906000526020600020905b81548152906001019060200180831161133457829003601f168201915b5050505050935082805461136490612631565b80601f016020809104026020016040519081016040528092919081815260200182805461139090612631565b80156113dd5780601f106113b2576101008083540402835291602001916113dd565b820191906000526020600020905b8154815290600101906020018083116113c057829003601f168201915b505050505092508180546113f090612631565b80601f016020809104026020016040519081016040528092919081815260200182805461141c90612631565b80156114695780601f1061143e57610100808354040283529160200191611469565b820191906000526020600020905b81548152906001019060200180831161144c57829003601f168201915b505050505091509450945094509450509193509193565b6000803373ffffffffffffffffffffffffffffffffffffffff1673ffffffffffffffffffffffffffffffffffffffff16815260200190815260200160002060030160009054906101000a900460ff1661150e576040517f08c379a000000000000000000000000000000000000000000000000000000000815260040161150590612576565b60405180910390fd5b60008111801561152057506002548111155b61155f576040517f08c379a0000000000000000000000000000000000000000000000000000000008152600401611556906129db565b60405180910390fd5b6004600082815260200190815260200160002060003373ffffffffffffffffffffffffffffffffffffffff1673ffffffffffffffffffffffffffffffffffffffff16815260200190815260200160002060009054906101000a900460ff16156115fd576040517f08c379a00000000000000000000000000000000000000000000000000000000081526004016115f490612cf8565b60405180910390fd5b60016004600083815260200190815260200160002060003373ffffffffffffffffffffffffffffffffffffffff1673ffffffffffffffffffffffffffffffffffffffff16815260200190815260200160002060006101000a81548160ff02191690831515021790555060016000828152602001908152602001600020600401600081548092919061168d90612d47565b91905055503373ffffffffffffffffffffffffffffffffffffffff16817fcf765d6f163c9b0d832e2a94f4c8e9bffd32a2c3ca5fdbb8cc67b5fe1441f41360405160405180910390a350565b6000808314806116ea575060025483115b156116f85760009050611759565b6004600084815260200190815260200160002060008373ffffffffffffffffffffffffffffffffffffffff1673ffffffffffffffffffffffffffffffffffffffff16815260200190815260200160002060009054906101000a900460ff1690505b92915050565b6000600360008473ffffffffffffffffffffffffffffffffffffffff1673ffffffffffffffffffffffffffffffffffffffff16815260200190815260200160002060008373ffffffffffffffffffffffffffffffffffffffff1673ffffffffffffffffffffffffffffffffffffffff16815260200190815260200160002060009054906101000a900460ff16905092915050565b600060205280600052604060002060009150905080600001805461181690612631565b80601f016020809104026020016040519081016040528092919081815260200182805461184290612631565b801561188f5780601f106118645761010080835404028352916020019161188f565b820191906000526020600020905b81548152906001019060200180831161187257829003601f168201915b5050505050908060010180546118a490612631565b80601f01602080910402602001604051908101604052809291908181526020018280546118d090612631565b801561191d5780601f106118f25761010080835404028352916020019161191d565b820191906000526020600020905b81548152906001019060200180831161190057829003601f168201915b50505050509080600201805461193290612631565b80601f016020809104026020016040519081016040528092919081815260200182805461195e90612631565b80156119ab5780601f10611980576101008083540402835291602001916119ab565b820191906000526020600020905b81548152906001019060200180831161198e57829003601f168201915b5050505050908060030160009054906101000a900460ff16905084565b6000803373ffffffffffffffffffffffffffffffffffffffff1673ffffffffffffffffffffffffffffffffffffffff16815260200190815260200160002060030160009054906101000a900460ff16611a56576040517f08c379a0000000000000000000000000000000000000000000000000000000008152600401611a4d90612576565b60405180910390fd5b600083118015611a6857506002548311155b611aa7576040517f08c379a0000000000000000000000000000000000000000000000000000000008152600401611a9e906129db565b60405180910390fd5b60008282905011611aed576040517f08c379a0000000000000000000000000000000000000000000000000000000008152600401611ae490612ddb565b60405180910390fd5b6006600084815260200190815260200160002060405180606001604052803373ffffffffffffffffffffffffffffffffffffffff16815260200184848080601f016020809104026020016040519081016040528093929190818152602001838380828437600081840152601f19601f82011690508083019250505050505050815260200142815250908060018154018082558091505060019003906000526020600020906003020160009091909190915060008201518160000160006101000a81548173ffffffffffffffffffffffffffffffffffffffff021916908373ffffffffffffffffffffffffffffffffffffffff1602179055506020820151816001019081611bfa9190612a96565b506040820151816002015550503373ffffffffffffffffffffffffffffffffffffffff16837fcc2d7dd2085ae6644799a42c0174adf9afc10a43f26db5eac3ddd1f96d1d64be8484604051611c50929190612dfb565b60405180910390a3505050565b6000803373ffffffffffffffffffffffffffffffffffffffff1673ffffffffffffffffffffffffffffffffffffffff16815260200190815260200160002060030160009054906101000a900460ff16611ceb576040517f08c379a0000000000000000000000000000000000000000000000000000000008152600401611ce290612576565b60405180910390fd5b60026000815480929190611cfe90612d47565b91905055506040518060a0016040528060025481526020013373ffffffffffffffffffffffffffffffffffffffff16815260200183838080601f016020809104026020016040519081016040528093929190818152602001838380828437600081840152601f19601f82011690508083019250505050505050815260200142815260200160008152506001600060025481526020019081526020016000206000820151816000015560208201518160010160006101000a81548173ffffffffffffffffffffffffffffffffffffffff021916908373ffffffffffffffffffffffffffffffffffffffff1602179055506040820151816002019081611e029190612a96565b506060820151816003015560808201518160040155905050600560003373ffffffffffffffffffffffffffffffffffffffff1673ffffffffffffffffffffffffffffffffffffffff16815260200190815260200160002060025490806001815401808255809150506001900390600052602060002001600090919091909150553373ffffffffffffffffffffffffffffffffffffffff166002547f285db98a4632176385795ddf0d2b67cef1a21f47eb2f5d06f786ab6b5147e200848442604051611ecf93929190612e1f565b60405180910390a35050565b600080fd5b600080fd5b600073ffffffffffffffffffffffffffffffffffffffff82169050919050565b6000611f1082611ee5565b9050919050565b611f2081611f05565b8114611f2b57600080fd5b50565b600081359050611f3d81611f17565b92915050565b600060208284031215611f5957611f58611edb565b5b6000611f6784828501611f2e565b91505092915050565b6000819050919050565b611f8381611f70565b8114611f8e57600080fd5b50565b600081359050611fa081611f7a565b92915050565b60008060408385031215611fbd57611fbc611edb565b5b6000611fcb85828601611f91565b9250506020611fdc85828601611f2e565b9150509250929050565b60008115159050919050565b611ffb81611fe6565b82525050565b60006020820190506120166000830184611ff2565b92915050565b60006020828403121561203257612031611edb565b5b600061204084828501611f91565b91505092915050565b61205281611f70565b82525050565b61206181611f05565b82525050565b600081519050919050565b600082825260208201905092915050565b60005b838110156120a1578082015181840152602081019050612086565b60008484015250505050565b6000601f19601f8301169050919050565b60006120c982612067565b6120d38185612072565b93506120e3818560208601612083565b6120ec816120ad565b840191505092915050565b600060a08201905061210c6000830188612049565b6121196020830187612058565b818103604083015261212b81866120be565b905061213a6060830185612049565b6121476080830184612049565b9695505050505050565b600080fd5b600080fd5b600080fd5b60008083601f84011261217657612175612151565b5b8235905067ffffffffffffffff81111561219357612192612156565b5b6020830191508360018202830111156121af576121ae61215b565b5b9250929050565b600080600080600080606087890312156121d3576121d2611edb565b5b600087013567ffffffffffffffff8111156121f1576121f0611ee0565b5b6121fd89828a01612160565b9650965050602087013567ffffffffffffffff8111156122205761221f611ee0565b5b61222c89828a01612160565b9450945050604087013567ffffffffffffffff81111561224f5761224e611ee0565b5b61225b89828a01612160565b92509250509295509295509295565b600060208201905061227f6000830184612049565b92915050565b600081519050919050565b600082825260208201905092915050565b6000819050602082019050919050565b6122ba81611f70565b82525050565b60006122cc83836122b1565b60208301905092915050565b6000602082019050919050565b60006122f082612285565b6122fa8185612290565b9350612305836122a1565b8060005b8381101561233657815161231d88826122c0565b9750612328836122d8565b925050600181019050612309565b5085935050505092915050565b6000602082019050818103600083015261235d81846122e5565b905092915050565b6000806040838503121561237c5761237b611edb565b5b600061238a85828601611f91565b925050602061239b85828601611f91565b9150509250929050565b60006060820190506123ba6000830186612058565b81810360208301526123cc81856120be565b90506123db6040830184612049565b949350505050565b600080604083850312156123fa576123f9611edb565b5b600061240885828601611f2e565b925050602061241985828601611f2e565b9150509250929050565b6000608082019050818103600083015261243d81876120be565b9050818103602083015261245181866120be565b9050818103604083015261246581856120be565b90506124746060830184611ff2565b95945050505050565b60008060006040848603121561249657612495611edb565b5b60006124a486828701611f91565b935050602084013567ffffffffffffffff8111156124c5576124c4611ee0565b5b6124d186828701612160565b92509250509250925092565b600080602083850312156124f4576124f3611edb565b5b600083013567ffffffffffffffff81111561251257612511611ee0565b5b61251e85828601612160565b92509250509250929050565b7f4e6f742072656769737465726564000000000000000000000000000000000000600082015250565b6000612560600e83612072565b915061256b8261252a565b602082019050919050565b6000602082019050818103600083015261258f81612553565b9050919050565b7f4e6f7420666f6c6c6f77696e6700000000000000000000000000000000000000600082015250565b60006125cc600d83612072565b91506125d782612596565b602082019050919050565b600060208201905081810360008301526125fb816125bf565b9050919050565b7f4e487b7100000000000000000000000000000000000000000000000000000000600052602260045260246000fd5b6000600282049050600182168061264957607f821691505b60208210810361265c5761265b612602565b5b50919050565b600082905092915050565b7f4e487b7100000000000000000000000000000000000000000000000000000000600052604160045260246000fd5b60008190508160005260206000209050919050565b60006020601f8301049050919050565b600082821b905092915050565b6000600883026126fe7fffffffffffffffffffffffffffffffffffffffffffffffffffffffffffffffff826126c1565b61270886836126c1565b95508019841693508086168417925050509392505050565b6000819050919050565b600061274561274061273b84611f70565b612720565b611f70565b9050919050565b6000819050919050565b61275f8361272a565b61277361276b8261274c565b8484546126ce565b825550505050565b600090565b61278861277b565b612793818484612756565b505050565b5b818110156127b7576127ac600082612780565b600181019050612799565b5050565b601f8211156127fc576127cd8161269c565b6127d6846126b1565b810160208510156127e5578190505b6127f96127f1856126b1565b830182612798565b50505b505050565b600082821c905092915050565b600061281f60001984600802612801565b1980831691505092915050565b6000612838838361280e565b9150826002028217905092915050565b6128528383612662565b67ffffffffffffffff81111561286b5761286a61266d565b5b6128758254612631565b6128808282856127bb565b6000601f8311600181146128af576000841561289d578287013590505b6128a7858261282c565b86555061290f565b601f1984166128bd8661269c565b60005b828110156128e5578489013582556001820191506020850194506020810190506128c0565b8683101561290257848901356128fe601f89168261280e565b8355505b6001600288020188555050505b50505050505050565b82818337600083830152505050565b60006129338385612072565b9350612940838584612918565b612949836120ad565b840190509392505050565b6000604082019050818103600083015261296f818688612927565b90508181036020830152612984818486612927565b905095945050505050565b7f496e76616c696420706f73744964000000000000000000000000000000000000600082015250565b60006129c5600e83612072565b91506129d08261298f565b602082019050919050565b600060208201905081810360008301526129f4816129b8565b9050919050565b7f436f6d6d656e74206e6f7420666f756e64000000000000000000000000000000600082015250565b6000612a31601183612072565b9150612a3c826129fb565b602082019050919050565b60006020820190508181036000830152612a6081612a24565b9050919050565b7f4e487b7100000000000000000000000000000000000000000000000000000000600052603260045260246000fd5b612a9f82612067565b67ffffffffffffffff811115612ab857612ab761266d565b5b612ac28254612631565b612acd8282856127bb565b600060209050601f831160018114612b005760008415612aee578287015190505b612af8858261282c565b865550612b60565b601f198416612b0e8661269c565b60005b82811015612b3657848901518255600182019150602085019450602081019050612b11565b86831015612b535784890151612b4f601f89168261280e565b8355505b6001600288020188555050505b505050505050565b7f43616e6e6f7420666f6c6c6f772073656c660000000000000000000000000000600082015250565b6000612b9e601283612072565b9150612ba982612b68565b602082019050919050565b60006020820190508181036000830152612bcd81612b91565b9050919050565b7f546172676574206e6f7420726567697374657265640000000000000000000000600082015250565b6000612c0a601583612072565b9150612c1582612bd4565b602082019050919050565b60006020820190508181036000830152612c3981612bfd565b9050919050565b7f416c726561647920666f6c6c6f77696e67000000000000000000000000000000600082015250565b6000612c76601183612072565b9150612c8182612c40565b602082019050919050565b60006020820190508181036000830152612ca581612c69565b9050919050565b7f416c7265616479206c696b656400000000000000000000000000000000000000600082015250565b6000612ce2600d83612072565b9150612ced82612cac565b602082019050919050565b60006020820190508181036000830152612d1181612cd5565b9050919050565b7f4e487b7100000000000000000000000000000000000000000000000000000000600052601160045260246000fd5b6000612d5282611f70565b91507fffffffffffffffffffffffffffffffffffffffffffffffffffffffffffffffff8203612d8457612d83612d18565b5b600182019050919050565b7f456d70747920636f6d6d656e7400000000000000000000000000000000000000600082015250565b6000612dc5600d83612072565b9150612dd082612d8f565b602082019050919050565b60006020820190508181036000830152612df481612db8565b9050919050565b60006020820190508181036000830152612e16818486612927565b90509392505050565b60006040820190508181036000830152612e3a818587612927565b9050612e496020830184612049565b94935050505056fea2646970667358221220742b36af965cd242c2cca8e81bc3c181d282f78de19bcede93d7c1e029f6e39764736f6c63430008110033",
  "linkReferences": {},
  "deployedLinkReferences": {}
}